:100000000C9442000C9400000C9400000C94C80066
:100010000C9400000C9400000C9400000C94000060
:100020000C9400000C9400000C9400000C94000050
:100030000C9400000C9493010C9400000C940000AC
:100040000C9400000C9400000C9400000C94000030
:100050000C9455010C9400000C947B010C9400004E
:100060000C9400000C9400000C9400000C94000010
:1000700000000000000004000010720002001A05D9
:1000800070000000F894EE27EFBBF1E0F5BFE5BF8C
:10009000F8E1A895A4B7A77FA4BFF0936000E09310
:1000A00060008DE0A2E0BB27ED938A95E9F780E040
:1000B0009FE0A0E0B1E0ED930197E9F7E6E7F0E01B
:1000C00085919591009761F0A591B5910590159056
:1000D000BF01F00105900D920197E1F7FB01F0CF10
:1000E000E0E0EEBBEFEFEDBFEFE0EEBFC0E0D5E04C
:1000F0000C94B001259A2698279A2298239A249A3C
:100100002B982C9ACC24E0E0E093060501D00895CA
:10011000E0E5ECBDE1E0EDBDE093040508951A9340
:10012000A981A53010F0E4E0E983E3E00E94040235
:10013000107FE981E7701E2BE3E0EA931A9302D067
:10014000188124C01A932C98EA81EF73E054EEBD15
:10015000EDB5E7FFFDCF1EB5E981EEBDEDB5E7FFDB
:10016000FDCF2C9A18818EC01A932C98E981EF73D9
:10017000E058EEBDEDB5E7FFFDCF1EB5E0E0EEBD0A
:10018000EDB5E7FFFDCF2C9AEEB5188122960895C4
:10019000EA93E1E0E0930505E9911895442455249C
:1001A00066247724E0E0E09303058EEF91E0019769
:1001B000F1F707D022D0E093010528D0E0930205A3
:1001C00008952ED088E08A95F1F7BB2059F4E2E03B
:1001D000EA93E8E0EA930E94A2008EEF91E0019793
:1001E000F1F709C0E2E0EA93E3E0EA930E94A2009B
:1001F00088E08A95F1F714D008951A93E8E00E94F8
:100200000402E12FEF71E093010508C01A93E5E0C5
:100210000E940402E12FEF70E09302051991089506
:10022000E1E0EA930E94B400EF71BE2E0895E1E090
:10023000AE2EDD24E2E4E093C000E0ECE093C100E8
:10024000E6E0E093C200E0E0E093C500E093C40084
:10025000E0931505E0931605E093170520D0089567
:10026000E1E0ED1511F4E0E00DC0E881E093070551
:10027000E981FA81E0930805F0930905E0E0E09355
:100280000A05E1E023960895A0910A05E09107058B
:10029000AE1720F4E1E0DE2E0E9409020895E091FD
:1002A000C100E861E093C10008950E941A021A9308
:1002B000A0911705AA30D8F4E0911605EF5FE093FE
:1002C0001605E150F0E0E55FFA4FDF01E091C6006E
:1002D000EC93E0911705EF5FE0931705E150A091D3
:1002E0001605AA3019F4E0E0E093160502C010915B
:1002F000C600199111C00E941A025F9B02C05F984C
:1003000001C05F9AA0910A05E0910705EA1711F470
:10031000DD2402C00E940902E991EFBFF991E99141
:10032000B991A99118950A92AA93BA93EA93FA936C
:10033000EFB7EA93A0911805B09119050E94260223
:1003400038F4E0911805F091190531970E942102C7
:10035000E991EFBFF991E991B991A99109901895A7
:100360002F970E947A00E3E0EA930E948F000E9498
:10037000CE00579A5F98E0E0E0938000E1E0E093E0
:100380008900E4EFE0938800EAE0E0938100E0E098
:10039000E0938200E2E0E0936F000E9417017894FE
:1003A000E8EEF3E00E942102FE018F0130E03430DC
:1003B00048F4E32FF0E0DE01AE0FBF1FEFEFEC9348
:1003C0003F5FF5CFEFE0EC8330E03F3048F4E32FC0
:1003D000EB5FF0E0DE01EA0FFB1F30833F5FF5CFFC
:1003E000E0911805F0911905309761F4E8EEF3E01B
:1003F0000E9421021A930A93E4E1EA930E943001D9
:100400000E944401EDCFFFCFEA930E94B4001E2F5B
:100410000895A0910805B0910905E0910A05EF5FE4
:10042000E0930A05E150F0E0AE0FBF1FEC91E093BE
:10043000C6000895AA93BA93EA93FA93EFB7EA93A2
:100440000895E0931805F0931905089500240A16FD
:100450000B0608955A934A933A932A931A930A9350
:1004600008955D814C813B812A811981088108951D
:00000001FF
