:0E0000000C9442000C9400000C9400000C9430
:10000E00F4000C9400000C9400000C9400000C946E
:10001E0000000C9400000C9400000C9400000C9452
:10002E0000000C9400000C9473020C9400000C94CD
:10003E0000000C9400000C9400000C9400000C9432
:10004E0000000C9400000C9400000C9400000C9422
:10005E0000000C9400000C9400000C9400000C9412
:10006E0000000000000000000400001072000200FA
:10007E00090570000000F894EE27EFBBF1E0F5BF24
:10008E00E5BFF8E1A895A4B7A77FA4BFF0936000E1
:10009E00E09360008DE0A2E0BB27ED938A95E9F72F
:1000AE0080E09FE0A0E0B1E0ED930197E9F7E6E78D
:1000BE00F0E085919591009761F0A591B59105902D
:1000CE001590BF01F00105900D920197E1F7FB012C
:1000DE00F0CFE0E0EEBBEFEFEDBFEFE0EEBFC0E044
:1000EE00D5E00C948C02259A2698279A2298239A6A
:1000FE00249A2B982C9ACC24E0E0E093060501D0AC
:10010E000895E0E5ECBDE1E0EDBDE0930405089552
:10011E001A93A981A53010F0E4E0E983E3E00E9490
:10012E000604107FE981E7701E2BE3E0EA931A9331
:10013E0002D0188191C11A932C98EA81EF73E05482
:10014E00EEBDEDB5E7FFFDCF1EB5E981EEBDEDB518
:10015E00E7FFFDCF2C9A1881239608951A932C98B9
:10016E00E981EF73E058EEBDEDB5E7FFFDCF1EB5AB
:10017E00E0E0EEBDEDB5E7FFFDCF2C9AEEB51881B0
:10018E006BC11A930E940B042C98E0E6EEBDEDB500
:10019E00E7FFFDCFA0910305A13021F4E92DEE5F1D
:1001AE00EEBD01C09EBCEDB5E7FFFDCF10E0191509
:1001BE0058F4D201EE27A10FBE1FEC91EEBDEDB5A6
:1001CE00E7FFFDCF1F5FF3CF2C9A69C1E091690065
:1001DE00E063E0936900EA9A0895EA93E1E0E09320
:1001EE000505E9911895A0910505A13049F4E0E0C7
:1001FE00E0930505EFE0EA930E94B500E093060553
:10020E0008954424552466247724E0E0E093030502
:10021E008EEF91E00197F1F707D03FD0E093010503
:10022E005FD0E0930205089564D088E08A95F1F7D7
:10023E00BB2059F4E2E0EA93E8E0EA930E94A200C0
:10024E008EEF91E00197F1F709C0E2E0EA93E3E067
:10025E00EA930E94A20088E08A95F1F74AD00895A9
:10026E00042C052821F05A924A920E94C703A881B5
:10027E00B981A138E0E0BE0710F0E0E89E2EE881DB
:10028E00F981FA93EA930E94A9032F01042C052801
:10029E0011F4992401C09880DFC01A93E8E00E94FF
:1002AE000604E12FEF71E0930105F9C01A93E8E01F
:1002BE000E940604A981AB3010F0AB3110F0EBE0D8
:1002CE00E983E12FE07EA981EA2B1E2FE8E0EA9375
:1002DE001A930E94A200E981E09301051881BCC027
:1002EE001A93E5E00E940604E12FEF70E0930205F9
:1002FE00D6C0E1E0EA930E94B500EF71BE2E0895DC
:10030E001A9313E20E948001E981E830E9F4E6E0F5
:10031E00EB1531F0E9E0EB1519F0E9E1EB1521F4FD
:10032E00E2E0EA93E8E00CC0EFE0EB1531F42B9835
:10033E0080E793E00197F1F706C0E2E0EA93E3E08D
:10034E00EA930E94110485C0E630E1F4E8E0EB1573
:10035E0059F40E9417040E94A2001A9BFECFEFE0F0
:10036E00EA930E94B5000DC0E6E1EB1531F0E9E02D
:10037E00EB1519F0E9E1EB1521F40E9417040E9428
:10038E00110467C0E930B9F4E8E0EB1531F40E94CE
:10039E000B0480EF8A95F1F70DC0E6E1EB1531F015
:1003AE00E6E0EB1519F0E9E1EB1521F40E941704D4
:1003BE000E9411044EC0E63109F5E8E0EB1541F458
:1003CE000E9417040E94A20080EF8A95F1F70FC0D9
:1003DE00E6E0EB1519F0E9E0EB1509F408C0E9E1E8
:1003EE00EB1559F40E940B0487E08A95F1F7E2E0D1
:1003FE00EA93E6E1EA930E9411042BC0E931F1F48D
:10040E00E8E0EB1531F40E940B0480EF8A95F1F7CA
:10041E000EC0E6E0EB1519F0E9E0EB1509F407C0A4
:10042E00E6E1EB1551F40E9417040E941104E2E07C
:10043E00EA93E9E1EA930E9411040BC0EF3049F40C
:10044E00E8E0EB1531F42B9A1CE0113010F011504E
:10045E00FCCF0E9480011881229608952B9A87E086
:10046E008A95F1F72B980E94C8000895509A589AD1
:10047E000895EDE5ECBDE0E0EDBD08950E941C048D
:10048E00ECE1EA930E94D3031E2F589A08C00E94F3
:10049E001C04E8E1EA930E94D3031E2F589A199187
:1004AE0008950E943B045898EC81EA930E94D3036E
:1004BE003E2F83E48A95F1F7E0E0EA930E94D3039E
:1004CE001E2FE0E0EA930E94D3030E2F589AE12FDD
:1004DE000E944204259608950A92AA93BA93EA932B
:1004EE00FA93EFB7EA930E94250438F4E0910705DA
:1004FE00F091080531970E942C04E991EFBFF99114
:10050E00E991B991A991099018952597E3EEE09399
:10051E0064000E947A00E3E0EA930E948F000E943A
:10052E0008010E94ED00EDE0EA930E945D010E9439
:10053E003D020E9440020E9445020E948800E0E0B7
:10054E00E0938000E1E0E0938900E4EFE09388001F
:10055E00EAE0E0938100E0E0E0938200E2E0E093E5
:10056E006F00E0E0E0930705E09308057894E8E07B
:10057E00EA930E948701E3E0F0E0FA93EA930E9487
:10058E0037010E9440020E944E020E942504E8F3A9
:10059E000E944502E5E0F0E00E942C040E94250432
:1005AE00E8F310E0133070F4E12FF0E0E40DF51DE8
:1005BE00FF93EF931A930E945802AF91BF91EC9361
:1005CE001F5FF0CF0E9488000E943502A0910505A2
:1005DE00A13011F40E94FA00EAE0F0E00E942C042F
:1005EE00D0CFFFCF22970E94390400E010E1D8014E
:1005FE00E0E0F0E0ED93FC93002E012AA1F1D8018A
:10060E000E943104E00FF11F3496AF0112960E9442
:10061E0031049F01309719F02E833F8304C0E0E030
:10062E00F1E1EE83FF83EE81FF81E41BF50BDF0129
:10063E00E885F9853496AE17BF0798F0FA01D80110
:10064E001296ED93FC93F901DA011296ED93FC9359
:10065E00E885F985DA01ED93FC934C5F5F4FFA0163
:10066E0004C08901C9CFE0E0F0E00E9440042A9660
:10067E0008950E943B0400E010E1002E012A79F05B
:10068E00D80112960E9431049F01DF01EC81FD8199
:10069E00EA17FB0711F4F80104C08901EECFE0E080
:1006AE00F0E00E9442042696089522970E94390493
:1006BE00EA85FB85309711F40C94A30334978F01D0
:1006CE001A930A930E9440039F013097A9F1D80113
:1006DE0012960E943104D9011296ED93FC93E8858F
:1006EE00F985309749F1FA93EA930E94F902AF0126
:1006FE003097E9F0D8010E943104EE83FF83DF01C9
:10070E00E885F985AE17BF0720F4EE81FF81E887F3
:10071E00F9875A934A93EC85FD85FA93EA93EC8513
:10072E00FD85FA93EA930E94DB03FA0107C0F801F4
:10073E00D9011296ED93FC93E0E0F0E00E944004A4
:10074E002C9608951A930A9300E010E0EA81FB813B
:10075E00309789F0FA93EA930E94F9028F0130974D
:10076E0051F01A930A93E0E0EA93ED81FE81FA9339
:10077E00EA930E94F803F8011981088124960895DE
:10078E00E881F981FA93EA93E0E0F0E0FA93EA93D4
:10079E000E945C0322960895E881EEBDEDB5E7FF59
:1007AE00FDCFEEB521960895998188810096A9F026
:1007BE00BD81AC81FB81EA81EA17FB0771F02CF059
:1007CE0061916D930197E1F708C0A80FB91FE80F6B
:1007DE00F91F62916E930197E1F7FD81EC812696E8
:1007EE000895B981A881109631F0FC81EB816A8160
:1007FE0061931197E9F7EB81FC8125960895EA93B1
:10080E000E94B5001E2F0895E2E0EA93E9E0EA9314
:10081E000C94A2000E94A20087E08A95F1F7089539
:10082E00E2E0EA93E6E0EA9308951A9310E058980E
:10083E00E4E0EA930E94D3031E2F0895A0910705CA
:10084E00B09108050E9435040895E0930705F093D2
:10085E0008050895ED91FC911197089500240A164C
:10086E000B0608955A934A933A932A931A930A932E
:10087E0008955D814C813B812A81198108810895FB
:00000001FF
