:020000000C945E
:100002005E000C9400000C9400000C945F010C94B0
:1000120000000C9400000C9400000C9400000C945E
:1000220000000C9400000C9400000C9400000C944E
:1000320000000C9454030C9400000C9400000C94E7
:1000420000000C9400000C9400000C9400000C942E
:10005200F1020C9400000C943C030C9400000C94EC
:1000620000000C9400000C9400000C940000FFFFB0
:10007200FFDD1A05FFFFFFFF00002005FFFFFFAABB
:1000820027050000000000000400001086000400A4
:100092001A05700002001E05740005002005760096
:1000A200020025057C00040027057E0002002B05C6
:1000B200820002002D0584000000F894EE27EFBBB9
:1000C200F1E0F5BFE5BFF8E1A895A4B7A77FA4BF0B
:1000D200F0936000E09360008DE0A2E0BB27ED9317
:1000E2008A95E9F780E09FE0A0E0B1E0ED93019707
:1000F200E9F7EAE8F0E085919591009761F0A59122
:10010200B59105901590BF01F00105900D920197F0
:10011200E1F7FB01F0CFE0E0EEBBEFEFEDBFEFE088
:10012200EEBFC0E0D5E00C9471030C2DA881BB2773
:10013200003029F0AA0FBB1F0A950030D9F7A3504F
:10014200B04002F021960895259A2698279A22987F
:10015200239A249A2B982C9ACC24E0E0E09306056B
:1001620001D00895E0E5ECBDE1E0EDBDE0930405CA
:1001720008951A93A981A53010F0E4E0E983E3E041
:100182000E948105107FE981E7701E2BE3E0EA936C
:100192001A9302D01881CCC11A932C98EA81EF737A
:1001A200E054EEBDEDB5E7FFFDCF1EB5E981EEBD32
:1001B200EDB5E7FFFDCF2C9A1881FFC11A932C9859
:1001C200E981EF73E058EEBDEDB5E7FFFDCF1EB557
:1001D200E0E0EEBDEDB5E7FFFDCF2C9AEEB518815C
:1001E200A7C124970E94F305E0E2EA930E949600D9
:1001F2002C98E0E2EEBDEDB5E7FFFDCFE0E0EEBD0D
:10020200EDB5E7FFFDCFEEB5EF83F0E0FA93EA93A9
:1002120098D0EF81E295E07FEE0F2E2F3327EF810A
:10022200EE0FEE0FEE0FAE2FE09104050E94D30504
:10023200AE2FEC2D0E94E3054E2F5527E0910405C9
:10024200A0E10E94D305AE2FEC2D0E94DB05F0E069
:10025200E7FDFFEFE887F987D901A41BB50BAE1BB9
:10026200BF0B8D010A930E949600E0E0EE83AE81FF
:10027200A81580F4E0E0EEBDEDB5E7FFFDCFEE811D
:10028200F0E0E60DF71DDF01EEB5EC93EE81EF5FD6
:10029200EE83EDCFE0E0EEBDEDB5E7FFFDCFEEB5CD
:1002A200E09300052C9A0E94FA052A960895E0919F
:1002B2006900E063E0936900EA9A0895EA93E1E055
:1002C200E0930505E9911895A0910505A13049F43F
:1002D200E0E0E0930505EFE0EA930E94DF00E0939F
:1002E200060508954424552466247724E0E0E0932B
:1002F20003058EEF91E00197F1F707D040D0E0932C
:10030200010560D0E0930205089565D088E08A95E2
:10031200F1F7BB2059F4E2E0EA93E8E0EA930E94A5
:10032200CD008EEF91E00197F1F709C0E2E0EA9388
:10033200E3E0EA930E94CD0088E08A95F1F74BD082
:100342000895062C072829F07A926A920E944A059B
:100352008824A881B981A138E0E0BE0710F0E0E866
:100362008E2EE881F981FA93EA930E942C053F01CF
:10037200062C072811F4882401C08880D9C01A935A
:10038200E8E00E948105E12FEF71E093010568C169
:100392001A93E8E00E948105A981AB3010F0AB31DD
:1003A20010F0EBE0E983E12FE07EA981EA2B1E2F1A
:1003B200E8E0EA931A930E94CD00E981E0930105F7
:1003C2001881B6C01A93E5E00E948105E12FEF7013
:1003D200E093020545C1E1E0EA930E94DF00EF717C
:1003E200BE2E08951A9313E20E94EC01E981E830CF
:1003F200E9F4E6E0EB1531F0E9E0EB1519F0E9E19B
:10040200EB1521F4E2E0EA93E8E00CC0EFE0EB1533
:1004120031F42B9880E793E00197F1F706C0E2E010
:10042200EA93E3E0EA930E9486057FC0E630E1F4B6
:10043200E8E0EB1559F40E948C050E94CD001A9B4E
:10044200FECFEFE0EA930E94DF000DC0E6E1EB157C
:1004520031F0E9E0EB1519F0E9E1EB1521F40E9426
:100462008C050E94860561C0E930B1F4E8E0EB1525
:1004720029F40E9491050E9496050DC0E6E1EB1554
:1004820031F0E6E0EB1519F0E9E1EB1521F40E94F9
:100492008C050E94860549C0E631E9F4E8E0EB15D7
:1004A20029F40E948C050E9496050EC0E6E0EB1529
:1004B20019F0E9E0EB1509F407C0E9E1EB1551F495
:1004C2000E9491050E948605E2E0EA93E6E1EA9342
:1004D2000E9486052AC0E931E9F4E8E0EB1529F427
:1004E2000E9491050E9496050EC0E6E0EB1519F0F8
:1004F200E9E0EB1509F407C0E6E1EB1551F40E94BF
:100502008C050E948605E2E0EA93E9E1EA930E9403
:1005120086050BC0EF3049F4E8E0EB1531F42B9A75
:100522001CE0113010F01150FCCF0E94EC01188138
:10053200229608950E94EC01E6E0EB1519F0E1E045
:10054200EB1571F4E7E0EA93E0E0EA930E94CD0054
:100552008BEB8A95F1F7E7E0EA930E94DF000895BA
:10056200E0E00895E1E0AE2EDD24E2E4E093C00095
:10057200E0ECE093C100E6E0E093C200E0E0E0934B
:10058200C500E093C400E0931505E0931605E093DF
:10059200170520D00895E1E0ED1511F4E0E00DC05B
:1005A200E881E0930705E981FA81E0930805F09379
:1005B2000905E0E0E0930A05E1E023960895A091A1
:1005C2000A05E0910705AE1720F4E1E0DE2E0E9455
:1005D2009C050895E091C100E861E093C10008958F
:1005E2000E94AD051A93A0911705AA30C8F4E091B4
:1005F2001605EF5FE09316050E94B405DF01E09156
:10060200C600EC93E0911705EF5FE0931705E15008
:10061200A0911605AA3019F4E0E0E093160502C095
:100622001091C600199138C01A9310E0A0911705D5
:10063200A130A8F0E0911505EF5FE09315050E9447
:10064200B4051081E0911705E150E0931705EF5FC3
:10065200A0911505AA3019F4E0E0E0931505E12F09
:1006620019910895E0911705E03011F4E1E0089541
:10067200E0E0089508950E94AD055F9B02C05F9877
:1006820001C05F9AA0910A05E0910705EA1711F4EB
:10069200DD2402C00E949C05E991EFBFF991E99126
:1006A200B991A99118950A92AA93BA93EA93FA93E7
:1006B200EFB7EA93A0911805B09119050E94EF05D2
:1006C20038F4E0911805F091190531970E94B905A7
:1006D200E991EFBFF991E991B991A9910990189522
:1006E2002597D15040E00E94A500E3E0EA930E94E2
:1006F200BA000E9458010E947301E0E0E09380007A
:10070200E1E0E0938900E4EFE0938800EAE0E0931F
:100712008100E0E0E0938200E2E0E0936F000E945B
:10072200B302E4EFF1E00E94B9057894E0E0E983D6
:100732000E94BE05FE0136968F0150E0543048F407
:10074200E52F0E94C205AE0FBF1FEFEFEC935F5F74
:10075200F5CFEFE0EA8750E05F3048F4E52FEB5F3A
:100762000E94C205EA0FFB1F50835F5FF5CFFE01B7
:1007720032969F0150E0533050F4E52FF0E0DE0155
:100782001296AE0FBF1FEFEFEC935F5FF4CFEDED6C
:10079200ED8341E00E943303E03091F50E9415039E
:1007A200E883A981A13039F4EA930E94C901E0E00B
:1007B200E9837BD025C0E981E03011F5A881AA3C0C
:1007C20029F40E94C60542E070D01AC0A881AD3952
:1007D20029F40E94BE0541E068D012C0A881AA3B5C
:1007E20051F40E94C60544E060D0E0E0E0931805B1
:1007F200E093190505C0A881AB3A11F4E1E0E98361
:10080200413009F450C04230E1F4A0910505A13015
:10081200B9F40E946501A0910605A43069F40E9412
:10082200F2008A924CD0E1E0ED15E9F37A926A92F5
:100832008A920E94CA0504C0A0910605A83001F45C
:1008420032C0443081F5E0911805F09119053097D6
:1008520051F55BE05B31B0F45A930E94C9010E94EA
:10086200C605E52FEB500E94C205EA0FFB1FFF935E
:10087200EF930E949B02AF91BF91EC930E94BE0541
:100882005F5FE8CF2ED0E1E0ED15E9F31A930A930A
:10089200E0E1EA930E94CA05E1E0ED15E9F3E2E343
:1008A200F0E00E94B90576CFFFCFE1E0ED15E9F364
:1008B200E0911E05F0911F050E94CE050895E88182
:1008C200E0932405E1E0ED15E9F3E0912505F091CF
:1008D2002605FA93EA93E5E0EA930E94CA05219677
:1008E2000895E1E0ED15E9F3E0912B05F0912C0577
:1008F2000E94CE05089522970E94F30500E010E1C0
:10090200D801E0E0F0E0ED93FC93002E012AA1F182
:10091200D8010E94EB05E00FF11F3496AF01129649
:100922000E94EB059F01309719F02E833F8304C08C
:10093200E0E0F1E1EE83FF83EE81FF81E41BF50B42
:10094200DF01E885F9853496AE17BF0798F0FA0102
:10095200D8011296ED93FC93F901DA011296ED9308
:10096200FC93E885F985DA01ED93FC934C5F5F4FC8
:10097200FA0104C08901C9CFE0E0F0E00E94FA0563
:100982002A9608950E94F50500E010E1002E012A42
:1009920079F0D80112960E94EB059F01DF01EC81EC
:1009A200FD81EA17FB0711F4F80104C08901EECFBB
:1009B200E0E0F0E00E94FC052696089522970E944E
:1009C200F305EA85FB85309711F40C9426053497DC
:1009D2008F011A930A930E94C3049F013097A9F1D1
:1009E200D80112960E94EB05D9011296ED93FC9361
:1009F200E885F985309749F1FA93EA930E947C04DD
:100A0200AF013097E9F0D8010E94EB05EE83FF8336
:100A1200DF01E885F985AE17BF0720F4EE81FF817B
:100A2200E887F9875A934A93EC85FD85FA93EA930E
:100A3200EC85FD85FA93EA930E945605FA0107C0F8
:100A4200F801D9011296ED93FC93E0E0F0E00E94E8
:100A5200FA052C9608951A930A9300E010E0EA81B1
:100A6200FB81309789F0FA93EA930E947C048F010C
:100A7200309751F01A930A93E0E0EA93ED81FE81F8
:100A8200FA93EA930E947305F8011981088124966A
:100A92000895E881F981FA93EA93E0E0F0E0FA93AD
:100AA200EA930E94DF042296089599818881009634
:100AB200A9F0BD81AC81FB81EA81EA17FB0771F0E5
:100AC2002CF061916D930197E1F708C0A80FB91F4F
:100AD200E80FF91F62916E930197E1F7FD81EC81B6
:100AE20026960895B981A881109631F0FC81EB8198
:100AF2006A8161931197E9F7EB81FC81259608954C
:100B0200EA930E94DF001E2F08950E94CD0087E025
:100B12008A95F1F70895E2E0EA93E6E0EA93089510
:100B2200E2E0EA93E9E0EA9308950E94CD0080EFC3
:100B32008A95F1F70895A0910805B0910905E09111
:100B42000A05EF5FE0930A05E150F0E0AE0FBF1F28
:100B5200EC91E093C6000895AA93BA93EA93FA93AC
:100B6200EFB7EA930895E150F0E0E55FFA4F089598
:100B7200E0931805F09319050895E8E0EA930C94C0
:100B8200F301F0E0DE0116960895E6E0EA930C9494
:100B9200F3010E94CC020C94E002FA93EA93E4E09F
:100BA200EA93F7CFEE230E2EEA2F19F0EE0F0A94F6
:100BB200E9F70895EE230E2EEA2F19F0E5950A942F
:100BC200E9F70895EE230E2EEA2F19F0E6950A941E
:100BD200E9F70895ED91FC911197089500240A1602
:100BE2000B0608955A934A933A932A931A930A93B7
:100BF20008955D814C813B812A8119810881089584
:00000001FF
